:020000040001F9
:10B00000F027002065B20100F3B20100FFB2010099
:10B010000000000000000000000000000000000030
:10B020000000000000000000000000002DB301003F
:10B0300000000000000000002FB3010031B3010048
:10B0400033B3010035B3010037B3010039B3010058
:10B050003BB30100000000003DB301003FB301001D
:10B0600041B3010043B3010045B3010047B3010000
:10B0700049B301004BB301004DB301004FB30100D0
:10B0800051B3010053B3010055B3010057B30100A0
:10B0900059B301005BB301005DB301005FB3010070
:10B0A00061B3010063B30100000000000000000074
:10B0B0000000000000000000000000000000000090
:10B0C00080B500F023F8002806D04F484F490860AB
:10B0D000802000024E49086000F050F8002802D09D
:10B0E00001204C49086000F065F800280DD04A485E
:10B0F0000068012806D0494847490860464800686A
:10B100000128FBD1C0204649086001BD00B5454873
:10B110000078C0B201282FD1434800780007000F03
:10B12000002829D141480078F0210140002907D1A9
:10B130003F480078F0210140002901D101201CE0A6
:10B140003A480078F0210140102907D138480078AA
:10B15000F0210140002901D101200EE033480078A0
:10B16000F0210140302907D131480078F021014019
:10B17000002901D1012000E0002000BD00B52948D0
:10B180000078C0B2012813D1274800780007000FCB
:10B1900000280DD125480078F0210140402907D131
:10B1A00023480078F0210140002901D1012000E06E
:10B1B000002000BD00B51B480078C0B2012821D195
:10B1C000194800780007000F00281BD117480078A5
:10B1D000F0210140A02907D115480078F021014055
:10B1E000002901D101200EE010480078F021014033
:10B1F000D02907D10E480078F0210140002901D163
:10B20000012000E0002000BDDFFF07C00405004072
:10B21000186C00400806004000EC064075930000E2
:10B2200014EC0640E00F00F0E40F00F0E80F00F02F
:10B23000EC0F00F030B401220EE00368C31844683C
:10B240000830144202D04D462C19641E1D6825603A
:10B250001B1D241D091FF9D10168001D0029ECD117
:10B2600030BC70470321064802680A430260054863
:10B2700002680A430260044880470448004700000F
:10B280002405004054050040C1B001000DB3010089
:10B2900010B5074979441831064C7C44163404E053
:10B2A000081D0A68891888470100A142F8D110BD1D
:10B2B00008000000180000007DFFFFFF04000000F0
:10B2C00068000000E81F0020000000000120C046C8
:10B2D000002801D0FFF7DCFF00BF00BF002000BF47
:10B2E00000BF0521002000F000F880B500F002F852
:10B2F00001BDFEE70746384600F002F8FBE7FEE72F
:10B300002021090326311820ABBEF9E70548014684
:10B3100003B4684680F3098800BF00BF00BF00BFC8
:10B32000FFF7D4FFA5EDF5FE0024F400FEE7FEE7ED
:10B33000FEE7FEE7FEE7FEE7FEE7FEE7FEE7FEE7E5
:10B34000FEE7FEE7FEE7FEE7FEE7FEE7FEE7FEE7D5
:10B35000FEE7FEE7FEE7FEE7FEE7FEE7FEE7FEE7C5
:04B36000FEE7FEE71F
:040000050001B30D36
:00000001FF
